{"abi":[{"type":"function","name":"addVault","inputs":[],"outputs":[{"name":"vaultIndex","type":"uint256","internalType":"uint256"}],"stateMutability":"nonpayable"},{"type":"function","name":"deposit","inputs":[{"name":"_vaultId","type":"uint256","internalType":"uint256"}],"outputs":[],"stateMutability":"payable"},{"type":"function","name":"getMyVaults","inputs":[],"outputs":[{"name":"","type":"uint256[]","internalType":"uint256[]"}],"stateMutability":"view"},{"type":"function","name":"getVault","inputs":[{"name":"_vaultId","type":"uint256","internalType":"uint256"}],"outputs":[{"name":"owner","type":"address","internalType":"address"},{"name":"balance","type":"uint256","internalType":"uint256"}],"stateMutability":"view"},{"type":"function","name":"getVaultsLength","inputs":[],"outputs":[{"name":"","type":"uint256","internalType":"uint256"}],"stateMutability":"view"},{"type":"function","name":"transferOwnership","inputs":[{"name":"_vaultId","type":"uint256","internalType":"uint256"},{"name":"_newOwner","type":"address","internalType":"address"}],"outputs":[],"stateMutability":"nonpayable"},{"type":"function","name":"vaults","inputs":[{"name":"","type":"uint256","internalType":"uint256"}],"outputs":[{"name":"balance","type":"uint256","internalType":"uint256"},{"name":"owner","type":"address","internalType":"address"}],"stateMutability":"view"},{"type":"function","name":"vaultsByOwner","inputs":[{"name":"","type":"address","internalType":"address"},{"name":"","type":"uint256","internalType":"uint256"}],"outputs":[{"name":"","type":"uint256","internalType":"uint256"}],"stateMutability":"view"},{"type":"function","name":"withdraw","inputs":[{"name":"_vaultId","type":"uint256","internalType":"uint256"},{"name":"amount","type":"uint256","internalType":"uint256"}],"outputs":[],"stateMutability":"nonpayable"},{"type":"event","name":"VaultAdded","inputs":[{"name":"id","type":"uint256","indexed":false,"internalType":"uint256"},{"name":"owner","type":"address","indexed":false,"internalType":"address"}],"anonymous":false},{"type":"event","name":"VaultDeposit","inputs":[{"name":"id","type":"uint256","indexed":false,"internalType":"uint256"},{"name":"owner","type":"address","indexed":false,"internalType":"address"},{"name":"amount","type":"uint256","indexed":false,"internalType":"uint256"}],"anonymous":false},{"type":"event","name":"VaultTransfer","inputs":[{"name":"id","type":"uint256","indexed":false,"internalType":"uint256"},{"name":"oldOwner","type":"address","indexed":false,"internalType":"address"},{"name":"newOwner","type":"address","indexed":false,"internalType":"address"}],"anonymous":false},{"type":"event","name":"VaultWithdraw","inputs":[{"name":"id","type":"uint256","indexed":false,"internalType":"uint256"},{"name":"owner","type":"address","indexed":false,"internalType":"address"},{"name":"amount","type":"uint256","indexed":false,"internalType":"uint256"}],"anonymous":false},{"type":"error","name":"InsufficentFunds","inputs":[]},{"type":"error","name":"Unauthorised","inputs":[]}],"bytecode":{"object":"0x6080604052348015600e575f5ffd5b5061103f8061001c5f395ff3fe608060405260043610610085575f3560e01c80638c533411116100585780638c5334111461013f5780638c64ea4a146101695780639403b634146101a6578063b6b55f25146101e3578063fb3ddf57146101ff57610085565b80631a0121db1461008957806329507f73146100c5578063441a3e70146100ed57806344b19dfc14610115575b5f5ffd5b348015610094575f5ffd5b506100af60048036038101906100aa9190610c71565b610229565b6040516100bc9190610cbe565b60405180910390f35b3480156100d0575f5ffd5b506100eb60048036038101906100e69190610cd7565b610254565b005b3480156100f8575f5ffd5b50610113600480360381019061010e9190610d15565b610615565b005b348015610120575f5ffd5b50610129610813565b6040516101369190610cbe565b60405180910390f35b34801561014a575f5ffd5b5061015361081e565b6040516101609190610cbe565b60405180910390f35b348015610174575f5ffd5b5061018f600480360381019061018a9190610d53565b610971565b60405161019d929190610d8d565b60405180910390f35b3480156101b1575f5ffd5b506101cc60048036038101906101c79190610d53565b6109be565b6040516101da929190610db4565b60405180910390f35b6101fd60048036038101906101f89190610d53565b610a2d565b005b34801561020a575f5ffd5b50610213610b4f565b6040516102209190610e92565b60405180910390f35b6001602052815f5260405f208181548110610242575f80fd5b905f5260205f20015f91509150505481565b813373ffffffffffffffffffffffffffffffffffffffff165f828154811061027f5761027e610eb2565b5b905f5260205f2090600202016001015f9054906101000a900473ffffffffffffffffffffffffffffffffffffffff1673ffffffffffffffffffffffffffffffffffffffff16146102fb576040517fd7a2ae6a00000000000000000000000000000000000000000000000000000000815260040160405180910390fd5b5f5b60015f3373ffffffffffffffffffffffffffffffffffffffff1673ffffffffffffffffffffffffffffffffffffffff1681526020019081526020015f2080549050811015610513578360015f3373ffffffffffffffffffffffffffffffffffffffff1673ffffffffffffffffffffffffffffffffffffffff1681526020019081526020015f20828154811061039557610394610eb2565b5b905f5260205f200154036105065760015f3373ffffffffffffffffffffffffffffffffffffffff1673ffffffffffffffffffffffffffffffffffffffff1681526020019081526020015f206001805f3373ffffffffffffffffffffffffffffffffffffffff1673ffffffffffffffffffffffffffffffffffffffff1681526020019081526020015f208054905061042c9190610f0c565b8154811061043d5761043c610eb2565b5b905f5260205f20015460015f3373ffffffffffffffffffffffffffffffffffffffff1673ffffffffffffffffffffffffffffffffffffffff1681526020019081526020015f20828154811061049557610494610eb2565b5b905f5260205f20018190555060015f3373ffffffffffffffffffffffffffffffffffffffff1673ffffffffffffffffffffffffffffffffffffffff1681526020019081526020015f208054806104ee576104ed610f3f565b5b600190038181905f5260205f20015f90559055610513565b80806001019150506102fd565b5060015f8373ffffffffffffffffffffffffffffffffffffffff1673ffffffffffffffffffffffffffffffffffffffff1681526020019081526020015f2083908060018154018082558091505060019003905f5260205f20015f9091909190915055815f848154811061058957610588610eb2565b5b905f5260205f2090600202016001015f6101000a81548173ffffffffffffffffffffffffffffffffffffffff021916908373ffffffffffffffffffffffffffffffffffffffff1602179055507f9d736ae53f2277bfe6e469370d0db987afa143aa81db9f2634cfdf6f2f8e28b583338460405161060893929190610f6c565b60405180910390a1505050565b813373ffffffffffffffffffffffffffffffffffffffff165f82815481106106405761063f610eb2565b5b905f5260205f2090600202016001015f9054906101000a900473ffffffffffffffffffffffffffffffffffffffff1673ffffffffffffffffffffffffffffffffffffffff16146106bc576040517fd7a2ae6a00000000000000000000000000000000000000000000000000000000815260040160405180910390fd5b815f84815481106106d0576106cf610eb2565b5b905f5260205f2090600202015f01541015610717576040517f85e45adc00000000000000000000000000000000000000000000000000000000815260040160405180910390fd5b815f848154811061072b5761072a610eb2565b5b905f5260205f2090600202015f015f8282546107479190610f0c565b925050819055505f838154811061076157610760610eb2565b5b905f5260205f2090600202016001015f9054906101000a900473ffffffffffffffffffffffffffffffffffffffff1673ffffffffffffffffffffffffffffffffffffffff166108fc8390811502906040515f60405180830381858888f193505050501580156107d2573d5f5f3e3d5ffd5b507f7b20da23e738efa0ae5f5a3fe32196712de0355b383e508615ba311f4e5a346f83338460405161080693929190610fa1565b60405180910390a1505050565b5f5f80549050905090565b5f5f60405180604001604052805f81526020013373ffffffffffffffffffffffffffffffffffffffff16815250908060018154018082558091505060019003905f5260205f2090600202015f909190919091505f820151815f01556020820151816001015f6101000a81548173ffffffffffffffffffffffffffffffffffffffff021916908373ffffffffffffffffffffffffffffffffffffffff160217905550505060015f805490506108d29190610f0c565b905060015f3373ffffffffffffffffffffffffffffffffffffffff1673ffffffffffffffffffffffffffffffffffffffff1681526020019081526020015f2081908060018154018082558091505060019003905f5260205f20015f90919091909150557fa3ccd9b56d18a571b67b97905e5ef425788000d31a490513f7cad937175beeeb8133604051610966929190610d8d565b60405180910390a190565b5f818154811061097f575f80fd5b905f5260205f2090600202015f91509050805f015490806001015f9054906101000a900473ffffffffffffffffffffffffffffffffffffffff16905082565b5f5f5f83815481106109d3576109d2610eb2565b5b905f5260205f2090600202016001015f9054906101000a900473ffffffffffffffffffffffffffffffffffffffff1691505f8381548110610a1757610a16610eb2565b5b905f5260205f2090600202015f01549050915091565b803373ffffffffffffffffffffffffffffffffffffffff165f8281548110610a5857610a57610eb2565b5b905f5260205f2090600202016001015f9054906101000a900473ffffffffffffffffffffffffffffffffffffffff1673ffffffffffffffffffffffffffffffffffffffff1614610ad4576040517fd7a2ae6a00000000000000000000000000000000000000000000000000000000815260040160405180910390fd5b5f349050805f8481548110610aec57610aeb610eb2565b5b905f5260205f2090600202015f015f828254610b089190610fd6565b925050819055507fd9c5c6c4e1700169f54d83c8b698252ca33652331acb3dd7540530aca8e1f6ee833383604051610b4293929190610fa1565b60405180910390a1505050565b606060015f3373ffffffffffffffffffffffffffffffffffffffff1673ffffffffffffffffffffffffffffffffffffffff1681526020019081526020015f20805480602002602001604051908101604052809291908181526020018280548015610bd657602002820191905f5260205f20905b815481526020019060010190808311610bc2575b5050505050905090565b5f5ffd5b5f73ffffffffffffffffffffffffffffffffffffffff82169050919050565b5f610c0d82610be4565b9050919050565b610c1d81610c03565b8114610c27575f5ffd5b50565b5f81359050610c3881610c14565b92915050565b5f819050919050565b610c5081610c3e565b8114610c5a575f5ffd5b50565b5f81359050610c6b81610c47565b92915050565b5f5f60408385031215610c8757610c86610be0565b5b5f610c9485828601610c2a565b9250506020610ca585828601610c5d565b9150509250929050565b610cb881610c3e565b82525050565b5f602082019050610cd15f830184610caf565b92915050565b5f5f60408385031215610ced57610cec610be0565b5b5f610cfa85828601610c5d565b9250506020610d0b85828601610c2a565b9150509250929050565b5f5f60408385031215610d2b57610d2a610be0565b5b5f610d3885828601610c5d565b9250506020610d4985828601610c5d565b9150509250929050565b5f60208284031215610d6857610d67610be0565b5b5f610d7584828501610c5d565b91505092915050565b610d8781610c03565b82525050565b5f604082019050610da05f830185610caf565b610dad6020830184610d7e565b9392505050565b5f604082019050610dc75f830185610d7e565b610dd46020830184610caf565b9392505050565b5f81519050919050565b5f82825260208201905092915050565b5f819050602082019050919050565b610e0d81610c3e565b82525050565b5f610e1e8383610e04565b60208301905092915050565b5f602082019050919050565b5f610e4082610ddb565b610e4a8185610de5565b9350610e5583610df5565b805f5b83811015610e85578151610e6c8882610e13565b9750610e7783610e2a565b925050600181019050610e58565b5085935050505092915050565b5f6020820190508181035f830152610eaa8184610e36565b905092915050565b7f4e487b71000000000000000000000000000000000000000000000000000000005f52603260045260245ffd5b7f4e487b71000000000000000000000000000000000000000000000000000000005f52601160045260245ffd5b5f610f1682610c3e565b9150610f2183610c3e565b9250828203905081811115610f3957610f38610edf565b5b92915050565b7f4e487b71000000000000000000000000000000000000000000000000000000005f52603160045260245ffd5b5f606082019050610f7f5f830186610caf565b610f8c6020830185610d7e565b610f996040830184610d7e565b949350505050565b5f606082019050610fb45f830186610caf565b610fc16020830185610d7e565b610fce6040830184610caf565b949350505050565b5f610fe082610c3e565b9150610feb83610c3e565b925082820190508082111561100357611002610edf565b5b9291505056fea2646970667358221220de1d856aaabb70071af572af62962c7a426e502bd1b00f1d917fa1c142f96d5d64736f6c634300081c0033","linkReferences":{}},"methodIdentifiers":{"addVault()":"8c533411","deposit(uint256)":"b6b55f25","getMyVaults()":"fb3ddf57","getVault(uint256)":"9403b634","getVaultsLength()":"44b19dfc","transferOwnership(uint256,address)":"29507f73","vaults(uint256)":"8c64ea4a","vaultsByOwner(address,uint256)":"1a0121db","withdraw(uint256,uint256)":"441a3e70"},"id":25}